:100000000C9434000C9446000C9446000C9446006A
:100010000C9446000C9446000C9446000C94460048
:100020000C9446000C9446000C9446000C94460038
:100030000C9446000C9446000C9446000C94460028
:100040000C9446000C9446000C9446000C94460018
:100050000C9446000C9446000C9446000C94460008
:100060000C9446000C94460011241FBECFEFD8E03C
:10007000DEBFCDBF11E0A0E0B1E001C01D92A33012
:10008000B107E1F70E949A010C94C6010C9400009C
:1000900090917C00987F90937C0090917C00877079
:1000A000892B80937C0080917A00806480937A0011
:1000B00080917A0084FFFCCF80917A0080618093E8
:1000C0007A002091780030917900C901089580E488
:1000D00080937C0087E880937A00089585B908951D
:1000E000209A5098589A5198599A0895E0E8F0E06B
:1000F000808183688083E1E8F0E080818B60808389
:10010000219A08959C018836910598F487E690E03D
:10011000909389008093880020E030E040E951E02E
:10012000CA010197F1F72F5F3F4F283C3105C1F716
:100130000895885690408636910598F48DEC90E0AD
:10014000909389008093880020E030E040E951E0FE
:10015000CA010197F1F72F5F3F4F283C3105C1F7E6
:100160000895C9018E5C904087369105C8F0C90199
:10017000855391408636910530F58AE991E0909358
:1001800089008093880020E030E040E951E0CA0116
:100190000197F1F72F5F3F4F283C3105C1F70895D4
:1001A00084E391E0909389008093880020E030E020
:1001B00040E951E0CA010197F1F72F5F3F4F283C1A
:1001C0003105C1F70895C9018B59914086369105D3
:1001D000C8F0C901815092408736910530F587E615
:1001E00092E0909389008093880020E030E040E91D
:1001F00051E0CA010197F1F72F5F3F4F283C3105CD
:10020000C1F7089580E092E0909389008093880080
:1002100020E030E040E951E0CA010197F1F72F5F9B
:100220003F4F283C3105C1F70895C90188569240D7
:100230008636910598F48DEC92E090938900809336
:10024000880020E030E040E951E0CA010197F1F771
:100250002F5F3F4F283C3105C1F70895C9018E5CDF
:1002600092408736910598F484E393E09093890057
:100270008093880020E030E040E951E0CA01019716
:10028000F1F72F5F3F4F283C3105C1F70895C901B1
:10029000855393408636910598F48AE993E09093CC
:1002A00089008093880020E030E040E951E0CA01F5
:1002B0000197F1F72F5F3F4F283C3105C1F70895B3
:1002C0002B5933402636310590F480E094E090932A
:1002D00089008093880080E090E020E931E0F90116
:1002E0003197F1F70196883C9105C9F7089510926E
:1002F00089001092880008958093C4009093C500EF
:1003000084E48093C20088ED8093C1000895982F03
:100310008091C00085FFFCCF9093C60008950E9495
:1003200070000E9467000E94760087E690E00E94BD
:100330007C0108950E9470000E9467000E94760070
:1003400087E690E00E947C01489914C049991AC040
:1003500081E00E946E0080E00E94480090930201BC
:10036000809301010E948200809100010E94870118
:10037000489BECCF80E00E946E00109289001092A2
:100380008800E2CF80E00E946E00DECFF894FFCFBD
:00000001FF
